S01B0000427265616B6F7574426F646765725F746573742E737265635A
S11300000C9434000C9451000C9451000C94510045
S11300100C9451000C9451000C9451000C94510018
S11300200C9451000C9451000C9451000C94510008
S11300300C9451000C9451000C9457010C945100F1
S11300400C9451000C9451000C9451000C945100E8
S11300500C9451000C9451000C9451000C945100D8
S11300600C9451000C94510011241FBECFEFD8E022
S1130070DEBFCDBF11E0A0E0B1E0EEEEF9E002C0DA
S113008005900D92A834B107D9F721E0A8E4B1E0B6
S113009001C01D92A036B207E1F70E9452010C94F0
S11300A0F5040C940000CF93C82F8A3019F48DE026
S11300B00E945300E0ECF0E0808185FFFDCFC09307
S11300C0C60080E090E0CF910895689413F8969567
S11300D08795779567951694D1F70E94C5012150AD
S11300E031093093C5002093C40088E18093C10096
S11300F086E08093C20080E091E090935D0180935C
S11301005C018EE091E00E94FD0181E291E00E9499
S1130110FD0180E191E00E94FD01089520E835E2AF
S113012040E050E060E074E284EF90E00E946500FB
S1130130579A82E080936E0099EF97BD84BD83E067
S113014085BD88EE93E090934D0180934C0110920D
S11301504F0110924E0124EF31E03093550120936A
S113016054019093590180935801109253011092B5
S11301705201789408958BB180588BB90895809179
S11301804E0190914F01892BE1F020914E01309165
S11301904F0110924F0110924E01809148019091AD
S11301A04901A0914A01B0914B01820F931FA11DF7
S11301B0B11D8093480190934901A0934A01B093E3
S11301C04B018091500190915101892B21F01092A3
S11301D05101109250018091580190915901892B3D
S11301E041F488EE93E090935901809358010E9462
S11301F0BB004E991DC081E090E090935301809321
S113020052018091560190915701892B09F049C000
S113021081E090E090935701809356012FEF81EE97
S113022094E0215080409040E1F700C00000089520
S11302308091560190915701019739F54E9B25C045
S1130240109257011092560180914B018F93809127
S11302504A018F93809149018F93809148018F9334
S11302608EE391E09F938F930E94E70110924801DF
S11302701092490110924A0110924B010F900F9075
S11302800F900F900F900F900895109257011092B5
S11302905601109248011092490110924A0110929D
S11302A04B0108950E948E000E94BF00FDCF1F9253
S11302B00F920FB60F9211248F939F9380914C014C
S11302C090914D01892B81F08091520190915301BD
S11302D0019751F480914C0190914D0101979093B5
S11302E04D0180934C0120C080914C0190914D01AF
S11302F0892B81F488EE93E090934D0180934C0117
S113030080914E0190914F01019690934F018093FB
S11303104E010AC088EE93E090934D0180934C0106
S113032010924F0110924E01809154019091550109
S1130330892B51F08091540190915501019790932C
S11303405501809354010FC084EF91E090935501BF
S113035080935401809150019091510101969093A2
S11303605101809350018091580190915901009757
S113037029F0019790935901809358019F918F918F
S11303800F900FBE0F901F901895A1E21A2EAA1B72
S1130390BB1BFD010DC0AA1FBB1FEE1FFF1FA21731
S11303A0B307E407F50720F0A21BB30BE40BF50B2E
S11303B0661F771F881F991F1A9469F760957095B7
S11303C0809590959B01AC01BD01CF010895A0E0FB
S11303D0B0E0EDEEF1E00C94CE04AE014B5F5F4F64
S11303E0FA0161917191AF0180915C0190915D017D
S11303F00E942D02E2E00C94EA040F931F93CF9322
S1130400DF93E0915C01F0915D01238121FF1BC02A
S11304108C01D0E0C0E0F80181918F0160915C0112
S113042070915D01DB011896ED91FC911997882379
S113043031F00995892B79F3DFEFCFEFECCF8AE028
S11304400995892B19F08FEF9FEF02C08D2F9C2FF8
S1130450DF91CF911F910F910895ABE0B0E0E3E3FA
S1130460F2E00C94BE046C017B018A01FC0117824A
S11304701682838181FFCCC1CE0101963C01F60135
S11304809381F70193FD859193FF81917F018823E7
S113049009F4BAC1853239F493FD859193FF8191B2
S11304A07F01853229F4B60190E00E942404E7CF4D
S11304B0912C212C312CFFE1F315D8F08B3279F0FB
S11304C038F4803279F08332A1F4232D20611DC0E9
S11304D08D3261F0803369F4232D216016C0832DA1
S11304E08260382EE32DE4603E2E2AC0F32DF8609E
S11304F01DC037FC2DC020ED280F2A3040F08E326D
S1130500B9F436FC81C1232D2064322E19C036FE85
S113051006C08AE0989E200D1124922E11C0EAE0B4
S11305202E9E200D1124222EF32DF0623F2E08C0A2
S11305308C3621F4832D8068382E02C0883641F42D
S1130540F70193FD859193FF81917F018111B3CFD1
S1130550982F9F7D9554933028F40C5F1F4F9FE391
S113056099830DC0833631F0833771F0833509F0F8
S113057059C021C0F801808189830E5F1F4F8824F0
S11305808394912C530113C02801F2E04F0E511CA7
S1130590F801A080B18036FE03C0692D70E002C06E
S11305A06FEF7FEFC5010E9419044C018201F32D06
S11305B0FF773F2E16C0280122E0420E511CF8019D
S11305C0A080B18036FE03C0692D70E002C06FEFD9
S11305D07FEFC5010E940E044C01F32DF0683F2EFD
S11305E0820133FC1BC0822D90E088169906B0F47A
S11305F0B60180E290E00E9424042A94F4CFF5012D
S113060037FC859137FE81915F01B60190E00E942D
S1130610240421102A9421E0821A9108811491045F
S113062071F7E8C0843611F0893641F5F80137FED8
S113063007C060817181828193810C5F1F4F08C064
S113064060817181072E000C880B990B0E5F1F4F80
S1130650F32DFF763F2E97FF09C0909580957095F6
S113066061957F4F8F4F9F4FF0683F2E2AE030E017
S1130670A3010E946004882E861845C0853731F492
S1130680232D2F7EB22E2AE030E025C0932D997FB2
S1130690B92E8F36C1F018F4883579F0B5C080379B
S11306A019F0883721F0B0C0E92FE061BE2EB4FE06
S11306B00DC0FB2DF460BF2E09C034FE0AC0292FE3
S11306C02660B22E06C028E030E005C020E130E00C
S11306D002C020E132E0F801B7FE07C060817181F9
S11306E0828193810C5F1F4F06C06081718180E01D
S11306F090E00E5F1F4FA3010E946004882E8618AD
S1130700FB2DFF773F2E36FE0DC0232D2E7FA22E0C
S1130710891458F434FE0BC032FC09C0832D8E7E3C
S1130720A82E05C0B82CA32C03C0B82C01C0B92C2A
S1130730A4FE0FC0FE01E80DF11D8081803321F479
S11307409A2D997EA92E09C0A2FE06C0B394B39433
S113075004C08A2D867809F0B394A3FC11C0A0FECE
S113076006C0B21488F4280C922C9B180EC0B21444
S113077060F4B60180E290E00E942404B394F7CFC1
S1130780B21418F42B1802C0982C212CA4FE10C00B
S1130790B60180E390E00E942404A2FE17C0A1FCED
S11307A003C088E790E002C088E590E0B6010CC081
S11307B08A2D867859F0A1FE02C08BE201C080E246
S11307C0A7FC8DE2B60190E00E942404891438F459
S11307D0B60180E390E00E9424049A94F7CF8A94AF
S11307E0F301E80DF11D8081B60190E00E9424041C
S11307F08110F5CF222009F442CEB60180E290E0C8
S11308000E9424042A94F6CFF6018681978102C0BF
S11308108FEF9FEF2B96E2E10C94DA04FC01059034
S1130820615070400110D8F7809590958E0F9F1FEE
S11308300895FC016150704001900110D8F7809533
S113084090958E0F9F1F08950F931F93CF93DF935F
S1130850FB01238121FD03C08FEF9FEF2CC022FFFA
S113086016C046815781248135814217530744F4C9
S1130870A081B1819D012F5F3F4F318320838C93F1
S1130880268137812F5F3F4F3783268314C08B0126
S1130890EC01FB010084F185E02D0995892BE1F63B
S11308A0D80116968D919C911797019617969C9353
S11308B08E931697CE01DF91CF911F910F910895DA
S11308C0FA01AA27283051F1203181F1E8946F937D
S11308D06E7F6E5F7F4F8F4F9F4FAF4FB1E03ED023
S11308E0B4E03CD0670F781F891F9A1FA11D680FC1
S11308F0791F8A1F911DA11D6A0F711D811D911DF4
S1130900A11D20D009F468943F912AE0269F112468
S11309103019305D3193DEF6CF010895462F4770CC
S1130920405D4193B3E00FD0C9F7F6CF462F4F7027
S1130930405D4A3318F0495D31FD4052419302D085
S1130940A9F7EACFB4E0A69597958795779567952B
S1130950BA95C9F700976105710508959B01AC012B
S11309600A2E06945795479537952795BA95C9F752
S1130970620F731F841F951FA01D08952F923F922D
S11309804F925F926F927F928F929F92AF92BF929B
S1130990CF92DF92EF92FF920F931F93CF93DF9347
S11309A0CDB7DEB7CA1BDB0B0FB6F894DEBF0FBEA4
S11309B0CDBF09942A88398848885F846E847D84F1
S11309C08C849B84AA84B984C884DF80EE80FD80F3
S11309D00C811B81AA81B981CE0FD11D0FB6F89469
S11109E0DEBF0FBECDBFED010895F894FFCF2A
S11309EE0000000200000000530000000000200A76
S11309FE2D2D2D2D2D2D2D2D2D2D2D2D2D2D2D2022
S1130A0E005072696E7466206F766572205561723D
S1130A1E7420697320656E61626C656421006D7368
S10B0A2E3A20256C75200A0032
S9030000FC
