S01B0000427265616B6F7574426F646765725F746573742E737265635A
S11300000C9434000C9451000C9451000C94510045
S11300100C9451000C9451000C9451000C94510018
S11300200C9451000C9451000C9451000C94510008
S11300300C9451000C9451000C94AF010C94510099
S11300400C9451000C9451000C9451000C945100E8
S11300500C9451000C9451000C9451000C945100D8
S11300600C9451000C94510011241FBECFEFD8E022
S1130070DEBFCDBF11E0A0E0B1E0EEEBFAE002C0DC
S113008005900D92A038B107D9F721E0A0E8B1E0BE
S113009001C01D92A23AB207E1F70E9426020C9415
S11300A05D050C940000CF93C82F8A3019F48DE0BD
S11300B00E9453008091C00085FFFCCFC093C6000E
S11300C080E090E0CF910895E4E096958795779548
S11300D06795EA95D1F70E942D022150310930939A
S11300E0C5002093C40088E18093C10086E080931A
S11300F0C20080E091E090939F0180939E018EE086
S113010091E00E94650281E291E00E94650280E133
S113011091E00C94650220E835E240E050E060E0B4
S113012074E284EF90E00E946400579A82E0809326
S11301306E0099EF97BD84BD83E085BD8AE090E0B1
S113014090938F0180938E011092910110929001EF
S1130150109295011092940180E395E79093970192
S11301608093960180ED97E090939B0180939A0190
S1130170789408958091900190919101892B11F1C7
S113018080919001909191011092910110929001AF
S11301904AE0489F9001499F300D112480918A01C3
S11301A090918B01A0918C01B0918D01820F931FCE
S11301B0A11DB11D80938A0190938B01A0938C01A2
S11301C0B0938D0180919801909199014E9913C03B
S11301D021E030E03093950120939401892B09F0BC
S11301E043C030939901209398018EE391E00E94DB
S11301F065025F9A0895019759F54E9B29C01092A4
S11302009901109298011092950110929401809195
S11302108D018F9380918C018F9380918B018F93AB
S113022080918A018F9382E591E09F938F930E943E
S11302304F0210928A0110928B0110928C0110923D
S11302408D010F900F900F900F900F900F900895C5
S1130250109299011092980110928A0110928B01C8
S113026010928C0110928D010895809192019091C9
S11302709301892B21F010929301109292018091A5
S11302809A0190919B01892B79F480ED97E09093EA
S11302909B0180939A018091940190919501892BFF
S11302A019F48BB180588BB98091880190918901A0
S11302B0893E23E09207C8F0885E934090938901B9
S11302C0809388018091840190918501A091860199
S11302D0B09187010196A11DB11D80938401909373
S11302E08501A0938601B093870180918401909148
S11302F08501A0918601B0918701409180015091C0
S113030081016091820170918301465F5F4F6F4F5D
S11303107F4F84179507A607B70700F180938001E4
S113032090938101A0938201B0938301209189016C
S11303302F93209188012F93BF93AF939F938F9313
S11303408BE691E09F938F930E944F028DB79EB7E7
S113035008960FB6F8949EBF0FBE8DBF08951F92E6
S11303600F920FB60F9211248F939F9380918E0159
S113037090918F01892B81F0809194019091950146
S1130380019751F480918E0190918F010197909380
S11303908F0180938E0120C080918E0190918F01F6
S11303A0892B81F48AE090E090938F0180938E01F1
S11303B08091900190919101019690939101809385
S11303C090010AC08AE090E090938F0180938E019F
S11303D01092910110929001809196019091970151
S11303E0892B51F0809196019091970101979093F8
S11303F09701809396010FC080E395E7909397014E
S1130400809396018091920190919301019690932B
S113041093018093920180919A0190919B0100979E
S113042029F0019790939B0180939A018091880110
S113043090918901019690938901809388019F91FD
S11304408F910F900FBE0F901F9018950E948B00F4
S11304500E9435010E94BA00FBCFA1E21A2EAA1B0A
S1130460BB1BFD010DC0AA1FBB1FEE1FFF1FA21760
S1130470B307E407F50720F0A21BB30BE40BF50B5D
S1130480661F771F881F991F1A9469F760957095E6
S1130490809590959B01AC01BD01CF010895A0E02A
S11304A0B0E0E5E5F2E00C943605AE014B5F5F4F3A
S11304B0FA0161917191AF0180919E0190919F0128
S11304C00E949502E2E00C9452050F931F93CF9380
S11304D0DF93E0919E01F0919F01238121FF1BC0D6
S11304E08C01D0E0C0E0F80181918F0160919E0100
S11304F070919F01DB011896ED91FC911997882367
S113050031F00995892B79F3DFEFCFEFECCF8AE057
S11305100995892B19F08FEF9FEF02C08D2F9C2F27
S1130520DF91CF911F910F910895ABE0B0E0EBE91B
S1130530F2E00C9426056C017B018A01FC01178210
S11305401682838181FFCCC1CE0101963C01F60164
S11305509381F70193FD859193FF81917F01882316
S113056009F4BAC1853239F493FD859193FF8191E1
S11305707F01853229F4B60190E00E948C04E7CF14
S1130580912C212C312CFFE1F315D8F08B3279F02A
S113059038F4803279F08332A1F4232D20611DC018
S11305A08D3261F0803369F4232D216016C0832DD0
S11305B08260382EE32DE4603E2E2AC0F32DF860CD
S11305C01DC037FC2DC020ED280F2A3040F08E329C
S11305D0B9F436FC81C1232D2064322E19C036FEB5
S11305E006C08AE0989E200D1124922E11C0EAE0E4
S11305F02E9E200D1124222EF32DF0623F2E08C0D2
S11306008C3621F4832D8068382E02C0883641F45C
S1130610F70193FD859193FF81917F018111B3CF00
S1130620982F9F7D9554933028F40C5F1F4F9FE3C0
S113063099830DC0833631F0833771F0833509F027
S113064059C021C0F801808189830E5F1F4F88241F
S11306508394912C530113C02801F2E04F0E511CD6
S1130660F801A080B18036FE03C0692D70E002C09D
S11306706FEF7FEFC5010E9481044C018201F32DCD
S1130680FF773F2E16C0280122E0420E511CF801CC
S1130690A080B18036FE03C0692D70E002C06FEF08
S11306A07FEFC5010E9476044C01F32DF0683F2EC4
S11306B0820133FC1BC0822D90E088169906B0F4A9
S11306C0B60180E290E00E948C042A94F4CFF501F4
S11306D037FC859137FE81915F01B60190E00E945D
S11306E08C0421102A9421E0821A91088114910427
S11306F071F7E8C0843611F0893641F5F80137FE08
S113070007C060817181828193810C5F1F4F08C093
S113071060817181072E000C880B990B0E5F1F4FAF
S1130720F32DFF763F2E97FF09C090958095709525
S113073061957F4F8F4F9F4FF0683F2E2AE030E046
S1130740A3010E94C804882E861845C0853731F459
S1130750232D2F7EB22E2AE030E025C0932D997FE1
S1130760B92E8F36C1F018F4883579F0B5C08037CA
S113077019F0883721F0B0C0E92FE061BE2EB4FE35
S11307800DC0FB2DF460BF2E09C034FE0AC0292F12
S11307902660B22E06C028E030E005C020E130E03B
S11307A002C020E132E0F801B7FE07C06081718128
S11307B0828193810C5F1F4F06C06081718180E04C
S11307C090E00E5F1F4FA3010E94C804882E861874
S11307D0FB2DFF773F2E36FE0DC0232D2E7FA22E3C
S11307E0891458F434FE0BC032FC09C0832D8E7E6C
S11307F0A82E05C0B82CA32C03C0B82C01C0B92C5A
S1130800A4FE0FC0FE01E80DF11D8081803321F4A8
S11308109A2D997EA92E09C0A2FE06C0B394B39462
S113082004C08A2D867809F0B394A3FC11C0A0FEFD
S113083006C0B21488F4280C922C9B180EC0B21473
S113084060F4B60180E290E00E948C04B394F7CF88
S1130850B21418F42B1802C0982C212CA4FE10C03A
S1130860B60180E390E00E948C04A2FE17C0A1FCB4
S113087003C088E790E002C088E590E0B6010CC0B0
S11308808A2D867859F0A1FE02C08BE201C080E275
S1130890A7FC8DE2B60190E00E948C04891438F420
S11308A0B60180E390E00E948C049A94F7CF8A9476
S11308B0F301E80DF11D8081B60190E00E948C04E3
S11308C08110F5CF222009F442CEB60180E290E0F7
S11308D00E948C042A94F6CFF6018681978102C087
S11308E08FEF9FEF2B96E2E10C944205FC010590FB
S11308F0615070400110D8F7809590958E0F9F1F1E
S11309000895FC016150704001900110D8F7809562
S113091090958E0F9F1F08950F931F93CF93DF938E
S1130920FB01238121FD03C08FEF9FEF2CC022FF29
S113093016C046815781248135814217530744F4F8
S1130940A081B1819D012F5F3F4F318320838C9320
S1130950268137812F5F3F4F3783268314C08B0155
S1130960EC01FB010084F185E02D0995892BE1F66A
S1130970D80116968D919C911797019617969C9382
S11309808E931697CE01DF91CF911F910F91089509
S1130990FA01AA27283051F1203181F1E8946F93AC
S11309A06E7F6E5F7F4F8F4F9F4FAF4FB1E03ED052
S11309B0B4E03CD0670F781F891F9A1FA11D680FF0
S11309C0791F8A1F911DA11D6A0F711D811D911D23
S11309D0A11D20D009F468943F912AE0269F112498
S11309E03019305D3193DEF6CF010895462F4770FC
S11309F0405D4193B3E00FD0C9F7F6CF462F4F7057
S1130A00405D4A3318F0495D31FD4052419302D0B4
S1130A10A9F7EACFB4E0A69597958795779567955A
S1130A20BA95C9F700976105710508959B01AC015A
S1130A300A2E06945795479537952795BA95C9F781
S1130A40620F731F841F951FA01D08952F923F925C
S1130A504F925F926F927F928F929F92AF92BF92CA
S1130A60CF92DF92EF92FF920F931F93CF93DF9376
S1130A70CDB7DEB7CA1BDB0B0FB6F894DEBF0FBED3
S1130A80CDBF09942A88398848885F846E847D8420
S1130A908C849B84AA84B984C884DF80EE80FD8022
S1130AA00C811B81AA81B981CE0FD11D0FB6F89498
S1110AB0DEBF0FBECDBFED010895F894FFCF59
S1130ABE0000000200000000530000000000200AA5
S1130ACE2D2D2D2D2D2D2D2D2D2D2D2D2D2D2D2051
S1130ADE005072696E7466206F766572205561726D
S1130AEE7420697320656E61626C656421005469BB
S1130AFE6D6572206861732053746172746564212C
S1130B0E2000427574746F6E2068656C6420696E83
S1130B1E206D733A20256C75200A0052756E207470
S1130B2E696D6520256C75732025646D73200A002C
S9030000FC
